:100000000C9479010C94E3020C9496010C949601E3
:100010000C9496010C9496010C9496010C94960104
:100020000C9496010C9496010C9496010C949601F4
:100030000C9496010C9496010C9496010C949601E4
:100040000C9496010C9496010C9496010C949601D4
:100050000C9496010C9496010C9496010C949601C4
:100060000C9496010C9496010403090412036F008A
:1000700062006400650076002E00610074000C03CD
:100080004D006F0075007300650012011001000043
:100090000008C016E8030001010200010902220065
:1000A000010100800A090400000103000000092189
:1000B00001010001223400070581030800640501E5
:1000C0000906A101050719E029E7150025017501B9
:1000D000950881029501750825651900296581003B
:1000E000C000000000000000000000000000000050
:1000F000000000140014002C000000140014001470
:10010000001400140014001400140014001400144F
:10011000001400140014001400140014001400143F
:10012000001400140014001400140014001400142F
:10013000001400140014001400140014001400141F
:10014000001400140014001400140014001400140F
:10015000001400620060005C0006005A0004005EAB
:100160000008005900610014001400140014001469
:1001700000140014005D0006005B0005005F00092C
:1001800000140014001400140014001400140014CF
:1001900000140014001400140014001400140014BF
:1001A00000140014001400140014001400140014AF
:1001B000001400140014001400140014001400149F
:1001C000001400140014001400140014001400148F
:1001D000001400140014001400140014001400147F
:1001E000001400140014001400140014001400146F
:1001F00000140000000000000000000000000000EB
:1002000000000000000000000000000000000000EE
:1002100000000000000000000000000000000000DE
:1002200000000000000000000000000000000000CE
:1002300000000000000000000000000000000000BE
:1002400000000000000000000000000000000000AE
:10025000000000000000000000000000000000009E
:10026000000000000000000000000000000000008E
:10027000000000000000000000000000000000007E
:10028000000000000000000000000000000000006E
:10029000000000000000000000000000000000005E
:1002A000000000000000000000000000000000004E
:1002B000000000000000000000000000000000003E
:1002C000000000000000000000000000000000002E
:1002D000000000000000000000000000000000001E
:1002E000000000000000000000000000000000000E
:1002F000000011241FBECFEFD4E0DEBFCDBF11E060
:10030000A0E0B1E0EEE4F9E002C005900D92A23069
:10031000B107D9F711E0A2E0B1E001C01D92AC3302
:10032000B107E1F70E943E040C94A5040C94000070
:100330001F93162F2091110124FF07C02091120155
:1003400038E823272093120103C02AE520931101E6
:10035000212FDC01E3E1F1E08D9181932150121610
:10036000DCF383E191E0612F0E94DF021C5F1093B8
:1003700011011F9108951F93CF93DF938091220164
:10038000835087FDA4C090911F0120911E012D3242
:1003900009F09BC0883009F098C0CCE0D0E0C91BC0
:1003A000D109CA5DDE4F83EC809306018AE5809314
:1003B0000001109202018881807621F0CE010E9416
:1003C00008047AC09A8110920F018981882331F440
:1003D000109210012FE031E082E06AC0853019F4FC
:1003E0009093230162C0863009F049C08B8181302F
:1003F00019F48AE890E01AC0823041F48CE990E068
:10040000909321018093200182E235C08330F1F482
:10041000992341F488E690E0909321018093200194
:1004200084E029C0913041F48CE690E09093210162
:100430008093200182E11FC09230E1F48EE790E0CA
:1004400090932101809320018CE015C0813241F40A
:100450008EEA90E0909321018093200189E00BC007
:10046000823241F48EEB90E0909321018093200141
:1004700084E301C080E090E4909302011DC08830C5
:1004800069F0893019F4909325010FC08A3049F042
:100490008B3059F48BE48093120107C025E231E0E0
:1004A00002C02FE031E081E003C02FE031E080E0C6
:1004B00030932101209320019F81992321F49E8173
:1004C000981708F4892F80930101109222018091DE
:1004D000000184FF44C0809101018F3F09F43FC0B7
:1004E000182F893008F018E0811B8093010180915A
:1004F000060198E8892780930601112319F180915C
:100500002001909121012091020126FF0AC0FC01E7
:10051000212FA7E0B1E034913D9331962150D9F7D6
:1005200008C0DC01212FE7E0F1E03D91319321503B
:10053000E1F70196212F2150820F911D9093210107
:100540008093200187E091E0612F0E94DF021C5F11
:100550001C3019F08FEF809301011093000184E1AA
:1005600099B1947131F48150D9F71092230110920E
:100570001D01DF91CF911F910895E9E6F0E08081A0
:1005800082608083E89A8BE4809312018AE58093ED
:1005900011010895A82FB92F80E090E041E050EAC2
:1005A000609530E009C02D9182279795879510F0CE
:1005B00084279527305EC8F36F5FA8F30895EADFBC
:1005C0008D939D930895CF93CFB7CF93DF93C3952A
:1005D0004C9BE9F74C9B11C04C9B0FC04C9B0DC032
:1005E0004C9B0BC04C9B09C04C9B07C04C9B05C04F
:1005F0004C9B03C04C9B01C083C06F93C0911F01F3
:10060000DD27CA5DDE4F2F9320E400C065E04C9BE0
:1006100003C02F916F91DECF0F931F934F9345E54A
:100620005F9355E53F933BE014E009B104712EC0A0
:100630006A95C9F03150D8F109B1047101130BC0AA
:1006400008942795299320E4555500F46A9569F795
:1006500001E069B10BC0102F66E02695299320E4D4
:10066000555518F3E2CF0FEF69B10000162F45552D
:1006700000F0404066E014710030E2F221F000002A
:1006800009B1047103C009B10471A9F0011309C0D3
:100690000894279568F200C06A95A9F700E069B14F
:1006A000E5CF102F66E0269528F20000ECCF11E090
:1006B0001CBB002719C03B503195C31BD04011E033
:1006C0001CBB0881033C09F10B34F9F020911D019A
:1006D0001981110F1213EDCF4A81441F093651F1D0
:1006E0000D3211F0013E29F7009324013F915F91F3
:1006F0004F911F910F912F916F91CCB3C0FD67CF98
:10070000DF91CF91CFBFCF91189520912401222363
:1007100069F310912201112381F5343082F1309375
:10072000220120931E0110911F013BE0311B3093E9
:100730001F0125C0009122010130FCF40AE54F7031
:1007400049F43091000134FD1BC000930001C6E064
:10075000D1E01AC03091110134FD12C00093110193
:10076000C2E1D1E011C0052710E000C00BB919C0EB
:10077000052710E0221F00C01DC04AE502C032ED6F
:10078000432FC4E1D0E032E01AB114615C9A0BB19E
:100790001AB954E120E869E420FF05270BB9279531
:1007A000179500C000001C3FF0F66695A8F7A1F76A
:1007B00020FF05270BB92795179500001C3FC0F6B1
:1007C00029913A9541F70B7E10912301110F0BB936
:1007D000C651D04011F010931D0111E01CBB006107
:1007E0001AB11B7E402F4B7E55E05A95F1F70BB99D
:1007F0001AB94BB97BCF90E0880F991F8E509F4F4D
:10080000FC01259134912093030130930401089554
:10081000FC01808180768032E9F48181813059F455
:1008200083E091E0909321018093200180E00E9479
:10083000FB0382E00895823041F485E091E09093DB
:1008400021018093200181E008958A3029F4838179
:100850008093050180E0089580E008951092C5001E
:1008600081E88093C400E2ECF0E0808186608083C0
:10087000E1ECF0E08081806180830895DF93CF9385
:10088000CDB7DEB7C054D0400FB6F894DEBF0FBE70
:10089000CDBF0E942E042EE088E190E00FB6F894C0
:1008A000A895809360000FBE209360000E94BD0257
:1008B000549A80E007C0A895E7E8F3E13197F1F793
:1008C00000C000008150B9F754987894CC24DD24FE
:1008D0008E010F5F1F4F32E0E32EF12CEC0EFD1E58
:1008E000A8950E94BB01DD20A9F08091110184FF31
:1008F000F7CFF801EC0DF11D80810E94FB03C3943A
:10090000CD1411F4CC24DD2483E091E062E00E9458
:100910009801E6CF8091C00087FFE2CF8091C600AA
:100920008983F701DD24D3940CC08091C00087FF38
:10093000FCCF8091C6008193D394A8958D2D8034EF
:0E09400079F28081843089F7CBCFF894FFCF15
:02094E005AFF4E
:00000001FF
