:100000000C9479010C94E3020C9496010C949601E3
:100010000C9496010C9496010C9496010C94960104
:100020000C9496010C9496010C9496010C949601F4
:100030000C9496010C9496010C9496010C949601E4
:100040000C9486040C9496010C9496010C949601E1
:100050000C9496010C9496010C9496010C949601C4
:100060000C9496010C9496010403090412036F008A
:1000700062006400650076002E00610074000C03CD
:100080004D006F0075007300650012011001000043
:100090000008C016E8030001010200010902220065
:1000A000010100800A090400000103000000092189
:1000B00001010001223400070581030800640501E5
:1000C0000906A101050719E029E7150025017501B9
:1000D000950881029501750825651900296581003B
:1000E000C000000000000000000000000000000050
:1000F000000000000014002C00280014001400145C
:10010000001400140014001400140014001400144F
:10011000001400140014001400140014001400143F
:10012000001400140014001400140014001400142F
:10013000001400140014001400140014001400141F
:10014000001400140014001400140014001400140F
:10015000001400620060005C0006005A0004005EAB
:100160000008005900610014001400140014001469
:1001700000140014005D0006005B0005005F00092C
:1001800000140014001400140014001400140014CF
:1001900000140014001400140014001400140014BF
:1001A00000140014001400140014001400140014AF
:1001B000001400140014001400140014001400149F
:1001C000001400140014001400140014001400148F
:1001D000001400140014001400140014001400147F
:1001E000001400140014001400140014001400146F
:1001F00000140000000000000000000000000000EB
:1002000000000000000000000000000000000000EE
:1002100000000000000000000000000000000000DE
:1002200000000000000000000000000000000000CE
:1002300000000000000000000000000000000000BE
:1002400000000000000000000000000000000000AE
:10025000000000000000000000000000000000009E
:10026000000000000000000000000000000000008E
:10027000000000000000000000000000000000007E
:10028000000000000000000000000000000000006E
:10029000000000000000000000000000000000005E
:1002A000000000000000000000000000000000004E
:1002B000000000000000000000000000000000003E
:1002C000000000000000000000000000000000002E
:1002D000000000000000000000000000000000001E
:1002E000000000000000000000000000000000000E
:1002F000000011241FBECFEFD4E0DEBFCDBF11E060
:10030000A0E0B1E0ECEAF9E002C005900D92A23065
:10031000B107D9F711E0A2E0B1E001C01D92AC3401
:10032000B107E1F70E943E040C94D4040C94000041
:100330001F93162F2091130124FF07C02091140151
:1003400038E823272093140103C02AE520931301E2
:10035000212FDC01E5E1F1E08D918193215012160E
:10036000DCF385E191E0612F0E94DF021C5F1093B6
:1003700013011F9108951F93CF93DF938091240160
:10038000835087FDA4C090912101209120012D323E
:1003900009F09BC0883009F098C0CCE0D0E0C91BC0
:1003A000D109C85DDE4F83EC809308018AE5809314
:1003B0000001109202018881807621F0CE010E9416
:1003C00008047AC09A81109211018981882331F43E
:1003D0001092120121E131E082E06AC0853019F407
:1003E0009093250162C0863009F049C08B8181302D
:1003F00019F48AE890E01AC0823041F48CE990E068
:10040000909323018093220182E235C08330F1F47E
:10041000992341F488E690E0909323018093220190
:1004200084E029C0913041F48CE690E09093230160
:100430008093220182E11FC09230E1F48EE790E0C8
:1004400090932301809322018CE015C0813241F406
:100450008EEA90E0909323018093220189E00BC003
:10046000823241F48EEB90E090932301809322013D
:1004700084E301C080E090E4909302011DC08830C5
:1004800069F0893019F4909327010FC08A3049F040
:100490008B3059F48BE48093140107C027E231E0DC
:1004A00002C021E131E081E003C021E131E080E0E0
:1004B00030932301209322019F81992321F49E816F
:1004C000981708F4892F80930101109224018091DC
:1004D000000184FF44C0809101018F3F09F43FC0B7
:1004E000182F893008F018E0811B8093010180915A
:1004F000080198E8892780930801112319F1809158
:100500002201909123012091020126FF0AC0FC01E3
:10051000212FA9E0B1E034913D9331962150D9F7D4
:1005200008C0DC01212FE9E0F1E03D913193215039
:10053000E1F70196212F2150820F911D9093230105
:100540008093220189E091E0612F0E94DF021C5F0D
:100550001C3019F08FEF809301011093000184E1AA
:1005600099B1947131F48150D9F71092250110920C
:100570001F01DF91CF911F910895E9E6F0E080819E
:1005800082608083E89A8BE4809314018AE58093EB
:1005900013010895A82FB92F80E090E041E050EAC0
:1005A000609530E009C02D9182279795879510F0CE
:1005B00084279527305EC8F36F5FA8F30895EADFBC
:1005C0008D939D930895CF93CFB7CF93DF93C3952A
:1005D0004C9BE9F74C9B11C04C9B0FC04C9B0DC032
:1005E0004C9B0BC04C9B09C04C9B07C04C9B05C04F
:1005F0004C9B03C04C9B01C083C06F93C0912101F1
:10060000DD27C85DDE4F2F9320E400C065E04C9BE2
:1006100003C02F916F91DECF0F931F934F9345E54A
:100620005F9355E53F933BE014E009B104712EC0A0
:100630006A95C9F03150D8F109B1047101130BC0AA
:1006400008942795299320E4555500F46A9569F795
:1006500001E069B10BC0102F66E02695299320E4D4
:10066000555518F3E2CF0FEF69B10000162F45552D
:1006700000F0404066E014710030E2F221F000002A
:1006800009B1047103C009B10471A9F0011309C0D3
:100690000894279568F200C06A95A9F700E069B14F
:1006A000E5CF102F66E0269528F20000ECCF11E090
:1006B0001CBB002719C03B503195C31BD04011E033
:1006C0001CBB0881033C09F10B34F9F020911F0198
:1006D0001981110F1213EDCF4A81441F093651F1D0
:1006E0000D3211F0013E29F7009326013F915F91F1
:1006F0004F911F910F912F916F91CCB3C0FD67CF98
:10070000DF91CF91CFBFCF91189520912601222361
:1007100069F310912401112381F5343082F1309373
:10072000240120932001109121013BE0311B3093E3
:10073000210125C0009124010130FCF40AE54F702D
:1007400049F43091000134FD1BC000930001C8E062
:10075000D1E01AC03091130134FD12C0009313018F
:10076000C4E1D1E011C0052710E000C00BB919C0E9
:10077000052710E0221F00C01DC04AE502C032ED6F
:10078000432FC4E1D0E032E01AB114615C9A0BB19E
:100790001AB954E120E869E420FF05270BB9279531
:1007A000179500C000001C3FF0F66695A8F7A1F76A
:1007B00020FF05270BB92795179500001C3FC0F6B1
:1007C00029913A9541F70B7E10912501110F0BB934
:1007D000C651D04011F010931F0111E01CBB006105
:1007E0001AB11B7E402F4B7E55E05A95F1F70BB99D
:1007F0001AB94BB97BCF90E0880F991F8E509F4F4D
:10080000FC01259134912093050130930601089550
:10081000FC01808180768032E9F48181813059F455
:1008200085E091E0909323018093220180E00E9473
:10083000FB0382E00895823041F487E091E09093D9
:1008400023018093220181E008958A3029F4838175
:100850008093070180E0089580E008951092C5001C
:1008600081E88093C400E2ECF0E0808186608083C0
:10087000E1ECF0E080818061808308950E942E0485
:100880002EE088E190E00FB6F894A8958093600080
:100890000FBE209360000E94BD02549A8FE392E441
:1008A000AFE081509040A040E1F700C000005498B4
:1008B00078948FEF87BD82E084BDA89A81E0809311
:1008C0006E0085E085BD8091C00087FFFCCF8091E0
:1008D000C60019C0809103018D30A9F38091C0003A
:1008E00087FFFCCF8091C60090910301E92FF0E0D3
:1008F000E25CFE4F80839F5F909303019D3019F06F
:10090000833009F3EBCF823029F3DDCF1F920F92B2
:100910000FB60F9211242F933F934F935F936F93D2
:100920007F938F939F93AF93BF93EF93FF93A8957C
:100930000E94BB0180910301882329F1909113014A
:1009400094FF21C0E0910401E81768F010920401BF
:100950001092030180E00E94FB0385E091E062E0D9
:100960000E94980110C0F0E0E25CFE4F80810E947E
:10097000FB0385E091E062E00E9498018091040110
:100980008F5F80930401FF91EF91BF91AF919F9191
:100990008F917F916F915F914F913F912F910F9028
:0C09A0000FBE0F901F901895F894FFCF29
:0209AC005AFFF0
:00000001FF
